{
  "contractName": "SimpleString",
  "abi": [
    {
      "anonymous": false,
      "inputs": [
        {
          "indexed": false,
          "internalType": "uint256",
          "name": "i",
          "type": "uint256"
        },
        {
          "indexed": false,
          "internalType": "string",
          "name": "t",
          "type": "string"
        }
      ],
      "name": "SimpleEvent",
      "type": "event"
    },
    {
      "constant": true,
      "inputs": [],
      "name": "id",
      "outputs": [
        {
          "internalType": "uint256",
          "name": "",
          "type": "uint256"
        }
      ],
      "payable": false,
      "stateMutability": "view",
      "type": "function"
    },
    {
      "constant": true,
      "inputs": [
        {
          "internalType": "uint256",
          "name": "",
          "type": "uint256"
        }
      ],
      "name": "people",
      "outputs": [
        {
          "internalType": "string",
          "name": "",
          "type": "string"
        }
      ],
      "payable": false,
      "stateMutability": "view",
      "type": "function"
    },
    {
      "constant": false,
      "inputs": [
        {
          "internalType": "string",
          "name": "message",
          "type": "string"
        }
      ],
      "name": "set",
      "outputs": [],
      "payable": false,
      "stateMutability": "nonpayable",
      "type": "function"
    },
    {
      "constant": false,
      "inputs": [
        {
          "internalType": "uint256",
          "name": "uid",
          "type": "uint256"
        },
        {
          "internalType": "string",
          "name": "message",
          "type": "string"
        }
      ],
      "name": "reset",
      "outputs": [],
      "payable": false,
      "stateMutability": "nonpayable",
      "type": "function"
    },
    {
      "constant": true,
      "inputs": [
        {
          "internalType": "uint256",
          "name": "uid",
          "type": "uint256"
        }
      ],
      "name": "get",
      "outputs": [
        {
          "internalType": "string",
          "name": "",
          "type": "string"
        }
      ],
      "payable": false,
      "stateMutability": "view",
      "type": "function"
    }
  ],
  "bytecode": "0x6080604052600060025534801561001557600080fd5b5061069d806100256000396000f3fe608060405234801561001057600080fd5b50600436106100575760003560e01c80630fc51d811461005c5780634ed3885e146101215780639507d39a146101dc5780639e7a13ad14610283578063af640d0f1461032a575b600080fd5b61011f6004803603604081101561007257600080fd5b81019080803590602001909291908035906020019064010000000081111561009957600080fd5b8201836020820111156100ab57600080fd5b803590602001918460018302840111640100000000831117156100cd57600080fd5b91908080601f016020809104026020016040519081016040528093929190818152602001838380828437600081840152601f19601f820116905080830192505050505050509192919290505050610348565b005b6101da6004803603602081101561013757600080fd5b810190808035906020019064010000000081111561015457600080fd5b82018360208201111561016657600080fd5b8035906020019184600183028401116401000000008311171561018857600080fd5b91908080601f016020809104026020016040519081016040528093929190818152602001838380828437600081840152601f19601f820116905080830192505050505050509192919290505050610374565b005b610208600480360360208110156101f257600080fd5b8101908080359060200190929190505050610458565b6040518080602001828103825283818151815260200191508051906020019080838360005b8381101561024857808201518184015260208101905061022d565b50505050905090810190601f1680156102755780820380516001836020036101000a031916815260200191505b509250505060405180910390f35b6102af6004803603602081101561029957600080fd5b810190808035906020019092919050505061050d565b6040518080602001828103825283818151815260200191508051906020019080838360005b838110156102ef5780820151818401526020810190506102d4565b50505050905090810190601f16801561031c5780820380516001836020036101000a031916815260200191505b509250505060405180910390f35b6103326105bd565b6040518082815260200191505060405180910390f35b8060016000848152602001908152602001600020908051906020019061036f9291906105c3565b505050565b60016002600082825401925050819055508060016000600254815260200190815260200160002090805190602001906103ae9291906105c3565b507fdcedb003eaeaeb2b296bfc236230f50ee98205892fc0d8df4535ee3bafc67ef5600254826040518083815260200180602001828103825283818151815260200191508051906020019080838360005b8381101561041a5780820151818401526020810190506103ff565b50505050905090810190601f1680156104475780820380516001836020036101000a031916815260200191505b50935050505060405180910390a150565b6060600160008381526020019081526020016000208054600181600116156101000203166002900480601f0160208091040260200160405190810160405280929190818152602001828054600181600116156101000203166002900480156105015780601f106104d657610100808354040283529160200191610501565b820191906000526020600020905b8154815290600101906020018083116104e457829003601f168201915b50505050509050919050565b60016020528060005260406000206000915090508054600181600116156101000203166002900480601f0160208091040260200160405190810160405280929190818152602001828054600181600116156101000203166002900480156105b55780601f1061058a576101008083540402835291602001916105b5565b820191906000526020600020905b81548152906001019060200180831161059857829003601f168201915b505050505081565b60025481565b828054600181600116156101000203166002900490600052602060002090601f016020900481019282601f1061060457805160ff1916838001178555610632565b82800160010185558215610632579182015b82811115610631578251825591602001919060010190610616565b5b50905061063f9190610643565b5090565b61066591905b80821115610661576000816000905550600101610649565b5090565b9056fea265627a7a72315820b3f67b2b0e9cd4d0ff770f34f016b338f01c262df1d227e044e70c3cc8bf4c3164736f6c63430005100032",
  "source": "pragma solidity >=0.4.22 <0.7.0;\n\ncontract SimpleString {\n    string storedData;\n    mapping(uint => string) public people;\n    uint public id = 0;\n    event SimpleEvent(uint i, string t);\n\n    function set(string memory message) public {       \n        id += 1;\n        people[id] = message;\n        emit SimpleEvent(id, message);\n    }\n\n    function  reset(uint uid, string memory message) public {\n        people[uid] = message;\n    }\n\n    function get(uint uid) public view returns (string memory) {\n        return people[uid];\n    }\n\n}\n",
  "sourcePath": "D:\\vuetest\\pet-shop\\contracts\\SimpleString.sol",
  "compiler": {
    "name": "solc",
    "version": "0.5.16+commit.9c3226ce.Emscripten.clang"
  },
  "schemaVersion": "3.1.0",
  "updatedAt": "2020-04-19T07:43:09.895Z",
  "networkType": "ethereum",
  "devdoc": {
    "methods": {}
  },
  "userdoc": {
    "methods": {}
  }
}